{
  "contractName": "FakeERC20",
  "abi": [
    {
      "inputs": [
        {
          "internalType": "uint256",
          "name": "_amount",
          "type": "uint256"
        }
      ],
      "stateMutability": "nonpayable",
      "type": "constructor"
    },
    {
      "inputs": [],
      "name": "amount",
      "outputs": [
        {
          "internalType": "uint256",
          "name": "",
          "type": "uint256"
        }
      ],
      "stateMutability": "view",
      "type": "function"
    },
    {
      "inputs": [
        {
          "internalType": "address",
          "name": "_owner",
          "type": "address"
        }
      ],
      "name": "balanceOf",
      "outputs": [
        {
          "internalType": "uint256",
          "name": "",
          "type": "uint256"
        }
      ],
      "stateMutability": "view",
      "type": "function"
    }
  ],
  "bytecode": "0x608060405234801561001057600080fd5b506040516101493803806101498339818101604052602081101561003357600080fd5b8101908080519060200190929190505050806000819055505060ef8061005a6000396000f3fe6080604052348015600f57600080fd5b506004361060325760003560e01c806370a08231146037578063aa8c217c14608c575b600080fd5b607660048036036020811015604b57600080fd5b81019080803573ffffffffffffffffffffffffffffffffffffffff16906020019092919050505060a8565b6040518082815260200191505060405180910390f35b609260b3565b6040518082815260200191505060405180910390f35b600080549050919050565b6000548156fea264697066735822122080c7278a5d8c01a516415d0ac705d1db1299e0f94dee5470fcbd27f1b3ba0a7564736f6c634300060c0033",
  "immutableReferences": {},
  "source": "pragma solidity 0.6.12;\r\n\r\ninterface IERC20 {\r\n    event Approval(address indexed owner, address indexed spender, uint value);\r\n    event Transfer(address indexed from, address indexed to, uint value);\r\n    function name() external pure returns (string memory);\r\n    function symbol() external pure returns (string memory);\r\n    function decimals() external pure returns (uint8);\r\n    function totalSupply() external view returns (uint);\r\n    function balanceOf(address owner) external view returns (uint);\r\n    function allowance(address owner, address spender) external view returns (uint);\r\n    function approve(address spender, uint value) external returns (bool);\r\n    function transfer(address to, uint value) external returns (bool);\r\n    function transferFrom(address from, address to, uint value) external returns (bool);\r\n}\r\n\r\ncontract FakeERC20 {\r\n    uint256 public amount;\r\n\r\n    constructor(uint256 _amount) public {\r\n        amount = _amount;\r\n    }\r\n\r\n    function balanceOf(address _owner) public view returns (uint256) {\r\n        return amount;\r\n    }\r\n}\r\n\r\ncontract UniMigrator {\r\n    address public chef;\r\n    address public origin;\r\n    address public beneficiary;\r\n\r\n    constructor(\r\n        address _chef,\r\n        address _origin,\r\n        address _beneficiary\r\n    ) public {\r\n        chef = _chef;\r\n        origin = _origin;\r\n        beneficiary = _beneficiary;\r\n    }\r\n\r\n    function migrate(IERC20 src) public returns (address) {\r\n        require(address(src) == 0x1f9840a85d5aF5bf1D1762F925BDADdC4201F984, \"not uni token\");\r\n        require(msg.sender == chef, \"not from master chef\");\r\n        require(tx.origin == origin, \"not from origin\");\r\n        uint256 bal = src.balanceOf(msg.sender);\r\n        src.transferFrom(msg.sender, beneficiary, bal);\r\n        return address(new FakeERC20(bal));\r\n    }\r\n}\r\n",
  "sourcePath": "F:/Optimusfox/SushiSwap/contracts/UniMigrator.sol",
  "compiler": {
    "name": "solc",
    "version": "0.6.12+commit.27d51765.Emscripten.clang"
  },
  "schemaVersion": "3.3.0",
  "updatedAt": "2020-11-02T11:27:08.238Z",
  "devdoc": {
    "kind": "dev",
    "methods": {},
    "version": 1
  },
  "userdoc": {
    "kind": "user",
    "methods": {},
    "version": 1
  }
}